:0C03C8003F065B4F666D7D077F6F0040B5
:10034700011400090B000A0A0A0A0A0A0A0A011A12
:1003570000011500011E00011D0002160000021811
:060367000000021B000073
:10022200120389120003BF010CE51D70047E0180D8
:10023200027E008E1DBF0207E4F51AF515F51EE5D4
:100242001A75F00A84FD7C007F011203BFE51A7F54
:10025200021203B67D0B7C007F031203BFE5157506
:10026200F00A84FD7C007F041203BFE5157F0512AE
:1002720003B67D0B7C007F061203BFE51E75F00AF4
:1002820084FD7C007F071203BFE51E75F00A84E53A
:0C029200F0FD7C007F081203BF02022573
:10031E00E51D6024051EE51EC39464401BE4F51E16
:10032E000515E515D3943C400FE4F515051AE51AAD
:09033E00D3943C4003E4F51A22BB
:0903B60075F00A84E5F0FD7C00FD
:0903BF00AE05740B2FF8A606220E
:06029E008F1F8C208D2152
:1002A40078227C007D007BFF7A0379C87E007F0C76
:1002B4001200DEE4F580C37408951FF51F1392A2A3
:1002C400E51FC313F51F1392A3E51FC313F51F13F3
:1002D40092A4E51FC313F51F74222521F8E6F580C7
:0102E40022F7
:10036E00740B2508F8E6FD7C00AF0812029E050806
:0A037E00E508C39409400375080167
:010388002252
:05000300E4AF14F51448
:0100080022D5
:1003A000E4FF20B1010F20B0027F0220B2027F03E0
:0503B00020B3027F04F0
:0103B5002225
:1002E50085090A1203A08F09E50AB40107E509701B
:1002F50003751401E50AB40207E5097003751402D4
:10030500E50AB40307E5097003751403E50AB404A7
:0803150007E5097003751404EB
:01031D0022BD
:03000B00020104EB
:10010400C0E0C0F0C083C082C0D075D000C000C0C1
:1001140001C002C003C004C005C006C007758A66DA
:10012400758CFC0517E517700205160519E519709D
:10013400020518051CE51C7002051BC3E517941481
:10014400E516940040097516007517001202E5C300
:10015400E5199402E5189400400975180075190012
:1001640012036EC3E51C940AE51B94004009751B39
:1001740000751C0012031ED007D006D005D004D091
:1001840003D002D001D000D0D0D082D083D0F0D020
:02019400E03257
:100389005389F0438901758A66758CFCC28DD28CBC
:07039900D2A9D2AFC2B922C4
:0300000002019664
:0C019600787FE4F6D8FD75812D0201DDB4
:10000E00E709F608DFFA8046E709F208DFFA803ED4
:10001E0088828C83E709F0A3DFFA8032E309F608C1
:10002E00DFFA8078E309F208DFFA807088828C8329
:10003E00E309F0A3DFFA806489828A83E0A3F608DD
:10004E00DFFA805889828A83E0A3F208DFFA804CB7
:10005E0080D280FA80C680D4806980F2803380108E
:10006E0080A680EA809A80A880DA80E280CA8033F7
:10007E0089828A83ECFAE493A3C8C582C8CCC5836F
:10008E00CCF0A3C8C582C8CCC583CCDFE9DEE7803F
:10009E000D89828A83E493A3F608DFF9ECFAA9F0BE
:1000AE00EDFB2289828A83ECFAE0A3C8C582C8CC14
:1000BE00C583CCF0A3C8C582C8CCC583CCDFEADE2D
:1000CE00E880DB89828A83E493A3F208DFF980CC8F
:1000DE0088F0EF60010E4E60C388F0ED2402B40488
:1000EE000050B9F582EB2402B4040050AF2323452F
:0600FE00822390005E73F6
:1001A200020222E493A3F8E493A34003F68001F24F
:1001B20008DFF48029E493A3F85407240CC8C3335E
:1001C200C4540F4420C8834004F456800146F6DF2D
:1001D200E4800B0102040810204080900347E47E73
:1001E200019360BCA3FF543F30E509541FFEE49322
:1001F200A360010ECF54C025E060A840B8E493A3E9
:10020200FAE493A3F8E493A3C8C582C8CAC583CA13
:10021200F0A3C8C582C8CAC583CADFE9DEE780BECB
:01036D00008F
:00000001FF
