:0300000002000EED
:0C000E00787FE4F6D8FD758134020055BF
:10009A0020280BFF080808FF000E15151508007E1A
:1000AA000102007F0102000E11110E007D00000006
:1000BA000000000000000000000000010800020922
:0200CA00000034
:10012C00120003120172E4F533E5332508240BF8B1
:10013C00E6FD7C00AF331201500533E533C3940860
:04014C0040E780E226
:100172005389F0438901758A66758CFCC28DD28CD5
:07018200D2A9D2AFC2B922DD
:03000B000200CD23
:1000CD00C0E0C0D0758A66758CFC050AE50A700221
:1000DD000509C394F4E509940140120508E508D318
:1000ED0094194003750800750900750A00D0D0D029
:0200FD00E032EF
:05000300C2B6C2B522E7
:100150008F34AF051200FFAF347480A80708800207
:10016000C313D8FCF4F5807F017E001201897580ED
:02017000FF226C
:0200FF00AD074B
:10010100E4FB74807E00A803088006CEA2E713CE2C
:1001110013D8F8FFEDF582EF558224FF92B4D2B6E1
:0A012100C2B60BBB08DCD2B5C2B5B4
:01012B0022B1
:10018900EF4E600F7D047CEFDCFEDDFCEF1F70F0AD
:030199001E80EDD8
:01019C002240
:10001A0002012CE493A3F8E493A34003F68001F2CF
:10002A0008DFF48029E493A3F85407240CC8C333E7
:10003A00C4540F4420C8834004F456800146F6DFB6
:10004A00E4800B010204081020408090009AE47EAC
:10005A00019360BCA3FF543F30E509541FFEE493AB
:10006A00A360010ECF54C025E060A840B8E493A372
:10007A00FAE493A3F8E493A3C8C582C8CAC583CA9D
:10008A00F0A3C8C582C8CAC583CADFE9DEE780BE55
:0100CC000033
:00000001FF
