:1003A50011083F065B4F666D7D077F6F777C395E71
:0303B5007971005B
:04038C007F147E005C
:10039000EF4E6010007D047CEFDCFEDDFCEF1F7093
:0403A000EF1E80ECE0
:0103A4002236
:0B0358007E00120390AD1CAC1B7F0266
:10036300AB05C374089FFF1392A2EFC313FF13924D
:10037300A3EFC3131392A474082BF8E6F5807F014F
:090383007E00120390E4F58022D3
:10000300752100752201751900751A10751B00758D
:100013001C10751D00751E10751F00752010AD1A7C
:10002300AC197F011203637F021203587F027E0023
:10003300120390AD1EAC1D7F031203637F027E008B
:10004300120390AD20AC1F7F041203637F027E0076
:100053001203907590FFC29320970C12038C309774
:10006300FD12038C90000720960C12038C3096FD32
:1000730012038C90000420950C12038C3095FD1212
:10008300038C90000120940E12038C3094FD120314
:100093008CE4F583F5827590FFC29220970C1203CE
:1000A3008C3097FD12038C90000820960C12038C61
:1000B3003096FD12038C90000520950C12038C30B2
:1000C30095FD12038C90000220940F12038C309440
:1000D300FD12038C74FFF583F5827590FFC29120A6
:1000E300970C12038C3097FD12038C900009209615
:1000F3000C12038C3096FD12038C90000620950C95
:1001030012038C3095FD12038C90000320940F1280
:10011300038C3094FD12038C74FFF583F582759084
:10012300FFC29020970C12038C3097FD12038C9022
:10013300000B20960C12038C3096FD12038C90005A
:100143000C20950C12038C3095FD12038C90000D3E
:1001530020940F12038C3094FD12038C74FFF583EB
:10016300F582C3E582940AE58394005029C3E583AD
:1001730094004022E52225E02417F8A68308A682EE
:10018300E52264044521700302022C0522E5227056
:1001930029052102022CE582640C4583701EE522A9
:1001A30025E02417F87600087610E522640145213E
:1001B3006077E522152270021521806DE582640DBA
:1001C3004583701BF519751A10F51B751C10F51D69
:1001D300751E10F51F752010F521752201804AE563
:1001E30082640B45837042AE1BAF1CFC7D6412031B
:1001F300B9AA06AB07AE19AF1A7C037DE81203B99F
:10020300EF2BFBEE3AFAAE1DAF1E7C007D0A120304
:10021300B9EF2BFFEE3AFEE5202FFFE51F3EFEEF81
:1002230064D27003EE6404603EAD1AAC197F011210
:1002330003637F011203587F017E00120390AD1EFA
:10024300AC1D7F031203637F017E00120390AD2078
:10025300AC1F7F041203637F017E0012039074FFBF
:10026300F583F5820200567D0A7C007F0112036349
:100273007F017E001203907D0B7C007F02120363DB
:100283007F017E001203907D0C7C007F03120363C9
:100293007F017E001203907D0D7C007F04120363B7
:1002A3007F017E001203907D0E7C007F05120363A5
:1002B3007F017E001203907D0F7C007F0612036393
:0902C3007F017E00120390809E71
:030000000202CC2D
:0C02CC00787FE4F6D8FD75812202031350
:1003B900EF8DF0A4A8F0CF8CF0A428CE8DF0A42E58
:0203C900FE2212
:1002D800020003E493A3F8E493A34003F68001F239
:1002E80008DFF48029E493A3F85407240CC8C33327
:1002F800C4540F4420C8834004F456800146F6DFF6
:10030800E4800B01020408102040809003A5E47EDD
:10031800019360BCA3FF543F30E509541FFEE493EA
:10032800A360010ECF54C025E060A840B8E493A3B1
:10033800FAE493A3F8E493A3C8C582C8CAC583CADC
:10034800F0A3C8C582C8CAC583CADFE9DEE780BE94
:0103B8000044
:00000001FF
