:0202AA00410011
:10022600EF4E600F7D047CEFDCFEDDFCEF1F70F00F
:030236001E80ED3A
:0102390022A2
:10009A0012023A7BFF7A0279AA7D017F011201B22C
:1000AA0012024EE4FFFE1202797F011202A17F0AB8
:1000BA007E001202261202988F22EFFB7A00750C3C
:0A00CA00037D017F021201F380FEA6
:10024E005389F0438901E4F58AF58CC28DC28C2264
:0B027900AD07AC068C8CAF058F8A220D
:09029800AF8CEFFEAD8AEDFF22F0
:0602A100EF24FF928C2205
:030003000202A74F
:0302A700052232FB
:06025E00C2A58F80D2A7AB
:080264007F027EEFDEFEDFFCED
:01026C00226F
:0A028400C2A612025EC2A7020264C5
:1001D500CFCDCFCECCCE1200457C007D0A12004596
:0401E500ED2430FFD6
:0A01E900D2A612025EC2A702026451
:10021000AE07BE0104ED148006BE0209ED243F4482
:0602200080FF120284229F
:10023A007F381202847F0C1202847F061202847FA6
:04024A000102028427
:0A028E00AC03120210AF040201E9F4
:0601B2008B088A09890A8E
:1001B800120210E4FDAB08AA09A90A8D8275830012
:0C01C800120006FF60061201E90D80E93C
:0101D4002208
:0C017F007F0AEA24FFFDE434FFFC7E0050
:08018B008E0D8F0E8C0F8D10FC
:100193007F017E00E4FBEBC39510E50F6480F874E8
:0E01A3008098500AAC0DAD0E1200330B80E8B0
:0101B100222B
:0401F3008A0A8B0BDE
:1001F700120210AA0CEAD39400400D12017FAC0A38
:08020700AD0B1201D51A80EDC8
:01020F0022CC
:1000D400120210C3EA64809480400B7F2B1201E962
:1000E4008A168B17800E7F2D1201E9C3E49BF51746
:1000F400E49AF516AA15EAD39400400D12017FACD8
:0901040016AD171201D51A80EDA9
:01010D0022CF
:04010E008A1A8B1BA3
:10011200120210AA1CEAD3940040297F1012018116
:10012200AC1AAD1BCFCDCFCECCCE120045EF540FC3
:10013200FEC3940AEE5004243080022437FF1201D9
:04014200E91A80D165
:010146002296
:040147008A1F8B2060
:10014B00120210AA21EAD394004028EA24FFFDE40E
:10015B0034FFFC7F027E0012018BAC1FAD20CFCD94
:10016B00CFCECCCE120045EF54012430FF1201E963
:03017B001A80D215
:01017E00225E
:0300000002026D8C
:0C026D00787FE4F6D8FD75812202009A2B
:10000600BB010CE58229F582E5833AF583E02250AF
:1000160006E92582F8E622BBFE06E92582F8E222F9
:0D002600E58229F582E5833AF583E4932213
:10003300EF8DF0A4A8F0CF8CF0A428CE8DF0A42EE1
:02004300FE229B
:10004500BC000BBE0029EF8DF084FFADF022E4CC9F
:10005500F875F008EF2FFFEE33FEEC33FCEE9DEC68
:10006500984005FCEE9DFE0FD5F0E9E4CEFD22EDAE
:10007500F8F5F0EE8420D21CFEADF075F008EF2FF8
:10008500FFED33FD4007985006D5F0F222C398FDE9
:050095000FD5F0EA2286
:00000001FF
