:0C00F2000A083F065B4F666D7D077F6FBC
:0900B8007C0012008F7F027E0023
:1000C100EF4E6010007D047CEFDCFEDDFCEF1F7065
:0400D100EF1E80ECB2
:0100D5002208
:10008F00AB05C374089FFF1392A2EFC313FF139224
:10009F00A3EFC3131392A474082BF8E6F5807F0126
:0900AF007E001200C1E4F580227C
:1000D6007512017D017F011200B87D027F021200B8
:0C00E600B87D037C007F031200BA80E7A5
:03000000020003F8
:0C000300787FE4F6D8FD75811202004AF7
:10000F000200D6E493A3F8E493A34003F68001F231
:10001F0008DFF48029E493A3F85407240CC8C333F2
:10002F00C4540F4420C8834004F456800146F6DFC1
:10003F00E4800B01020408102040809000F2E47E5F
:10004F00019360BCA3FF543F30E509541FFEE493B6
:10005F00A360010ECF54C025E060A840B8E493A37D
:10006F00FAE493A3F8E493A3C8C582C8CAC583CAA8
:10007F00F0A3C8C582C8CAC583CADFE9DEE780BE60
:0100FE000001
:00000001FF
