:10000300C2B6C2B57D787C00E4FF12007E7DFC7C25
:10001300007F0112007E7DFE7C007F0212007E7D48
:100023007F7C007F0312007E7D7F7C007F041200B3
:100033007E7DFE7C007F0512007E7DFC7C007F06BA
:0E00430012007E7D787C007F0712007E80B662
:10007E008F08AF05120051AF087480A807088002E0
:10008E00C313D8FCF4F5807F017E001200A07580AA
:02009E00FF223F
:02005100AD07F9
:10005300E4FB74807E00A803088006CEA2E713CEDB
:1000630013D8F8FFEDF582EF558224FF92B4D2B690
:0A007300C2B60BBB08DCD2B5C2B563
:01007D002260
:1000A000EF4E600F7D047CEFDCFEDDFCEF1F70F097
:0300B0001E80EDC2
:0100B300222A
:030000000200B447
:0C00B400787FE4F6D8FD75810802000397
:00000001FF
