:10009A00204816F88CF8F3F95BF9B8FA15FA67FAFA
:1000AA00B9FB04FB4BFB90FBCFFC10FC44FC79FC36
:1000BA00ACFCDCFD09FD34FD5CFD82FDA6FDC8FD3E
:1000CA00E8FE06FE22FE3DFE56FE6EFE85FE9AFE06
:1000DA00AEFEC1FED3FEE4FEF4FF0301600001613F
:1000EA00000E080C0C1313151513111110100E0E17
:0500FA000C025E000095
:1001000012015174082561F8E6F56005617FC87E2B
:1001100000120168C28C7F057E00120168D28CE556
:0B01200061D3940D40DDE4F56180D850
:100151005389F0438901758A66758CFCC28DD28CF6
:07016100D2A9D2AFC2B922FE
:03000B0002012BC4
:10012B00C0E0C0D075D000C000C006E56025E0245B
:10013B0016F8E6FE08E6F58AEEF58CB2A5D006D0E9
:06014B0000D0D0D0E0322C
:10016800EF4E600F7D047CEFDCFEDDFCEF1F70F0CE
:030178001E80EDF9
:01017B002261
:0300000002000EED
:0C000E00787FE4F6D8FD75816102005592
:10001A00020100E493A3F8E493A34003F68001F2FB
:10002A0008DFF48029E493A3F85407240CC8C333E7
:10003A00C4540F4420C8834004F456800146F6DFB6
:10004A00E4800B010204081020408090009AE47EAC
:10005A00019360BCA3FF543F30E509541FFEE493AB
:10006A00A360010ECF54C025E060A840B8E493A372
:10007A00FAE493A3F8E493A3C8C582C8CAC583CA9D
:10008A00F0A3C8C582C8CAC583CADFE9DEE780BE55
:0100FF000000
:00000001FF
