:0C026B000A083F065B4F666D7D077F6F41
:040252007F147E0097
:10025600EF4E6010007D047CEFDCFEDDFCEF1F70CE
:04026600EF1E80EC1B
:01026A002271
:10022900AB05C374089FFF1392A2EFC313FF139288
:10023900A3EFC3131392A474082BF8E6F5807F018A
:090249007E00120256E4F5802249
:100003007590FFC29320970C1202523097FD120293
:100013005290000120960C1202523096FD120252A9
:1000230090000520950C1202523095FD1202529059
:10003300000920940C1202523094FD1202529000D7
:100043000D7590FFC29220970C1202523097FD1249
:10005300025290000220960C1202523096FD1202B8
:100063005290000620950C1202523095FD12025256
:1000730090000A20940C1202523094FD1202529006
:10008300000E7590FFC29120970C1202523097FD1B
:1000930012025290000320960C1202523096FD1267
:1000A300025290000720950C1202523095FD120265
:1000B3005290000B20940C1202523094FD12025203
:1000C30090000F7590FFC29020970C120252309748
:1000D300FD12025290000420960C1202523096FD3B
:1000E30012025290000820950C1202523095FD1214
:1000F300025290000C20940C1202523094FD120212
:1001030052900010C3E582940AE5839400500CAD2D
:1001130082AC837F011202290200037D017C007FF0
:10012300011202297F027E001202567C007D0AAF73
:1001330082AE831201D47F021202297F027E001253
:0501430002560200035A
:03000000020148B2
:0C014800787FE4F6D8FD75811102018F6C
:1001D400BC000BBE0029EF8DF084FFADF022E4CC0F
:1001E400F875F008EF2FFFEE33FEEC33FCEE9DECD8
:1001F400984005FCEE9DFE0FD5F0E9E4CEFD22ED1E
:10020400F8F5F0EE8420D21CFEADF075F008EF2F67
:10021400FFED33FD4007985006D5F0F222C398FD58
:050224000FD5F0EA22F5
:10015400020003E493A3F8E493A34003F68001F2BE
:1001640008DFF48029E493A3F85407240CC8C333AC
:10017400C4540F4420C8834004F456800146F6DF7B
:10018400E4800B010204081020408090026BE47E9E
:10019400019360BCA3FF543F30E509541FFEE49370
:1001A400A360010ECF54C025E060A840B8E493A337
:1001B400FAE493A3F8E493A3C8C582C8CAC583CA62
:1001C400F0A3C8C582C8CAC583CADFE9DEE780BE1A
:010277000086
:00000001FF
