:1009B200543A0054483A00544C3A004F563A4800D0
:0A09C2004F563A4C00202020200080
:07000300011E00021C0000B9
:10046D00E4FF12089B8F0D7F0112089B8F0CD3E5C3
:10047D000D648094FD5016C3E50C64809449400DC5
:10048D00D3E50C6480F8E50D6480985006750D1465
:10049D00750C0F120A661209E57BFF7A0979B27D98
:1004AD00017F011208C37BFF7A0979B57D017F02B7
:1004BD001208C37BFF7A0979B97D097F021208C33F
:1004CD00E50DFB3395E0FA7513037D047F021206EB
:1004DD00FFE50CFB3395E0FA7513037D0C7F0212DB
:1004ED0006FF120AC48F0E120A891208468F0B8E50
:1004FD000A8D098C08E50E70030205AAB4010E05DC
:10050D000DD3E50D648094FD4003750D7DE50EB4AE
:10051D000211150DD3E50C6480F8E50D648098503B
:10052D0002050DE50EB40311050CC3E50D6480F84D
:10053D00E50C6480984002150CE50EB40417150CFB
:10054D00AF0CEF3395E0FED3EF9465EE6480947FAE
:10055D005003750CC9E50DFB3395E0FA7513037D5A
:10056D00047F021206FFE50CFB3395E0FA751303C9
:10057D007D0C7F021206FFE50DFD3395E0FCE4FFD7
:10058D001209967F057E00120A52E50CFD3395E0A7
:10059D00FC7F011209967F057E00120A52AC0DEC0C
:1005AD00120248AB0BAA0AA909A8081201B4600AE5
:1005BD0040087BFF7A0979BD801FAC0CEC12024814
:1005CD00AB0BAA0AA909A8081201B47BFF50067A41
:1005DD000979C280047A0979C77D0D7F011208C39C
:1005ED00E4FFFEFDFCAB0BAA0AA909A8081201B491
:1005FD00501E7B2D7D037F01120AAAAF0BAE0AADF3
:10060D0009AC0812022D8F0B8E0A8D098C088009FA
:10061D007B2B7D037F01120AAAAF0BAE0AAD09AC8D
:10062D000812027CAB07AA067513037D047F011225
:10063D00095D7B2E7D077F01120AAAE4FFFE7DC8AE
:10064D007C42AB0BAA0AA909A80812000E12027C63
:10065D00E47B64FAF9F81203CD7513027D087F016E
:06066D0012095D0204EF1A
:050AC400E4AF1EF51E69
:010AC900220A
:1009FC00E4FF20B1010F20B0027F0220B2027F037E
:050A0C0020B3027F048D
:010A110022C2
:10073900851A1B1209FC8F1AE51BB40107E51A700B
:1007490003751E01E51BB40207E51A7003751E0245
:10075900E51BB40307E51A7003751E03E51BB40412
:0807690007E51A7003751E0478
:010771002265
:0D0A89001208E67FCC1209CC7F440209CC94
:100846001208E67FCC1209CC7FBE1209CC120940F1
:100856008F0F120940EFFEE50FFFFDAC06EC12020A
:0B08660043E4FBFA798078411201178F
:010871002264
:1008E600C2AFD2B7C2B77FE3DFFED2B77F1DDFFE4E
:0D08F600A2B7E433FE7FE3DFFED2AFAF0612
:0109030022D1
:100A1200C2AFC2B77E04DEFEEF24FF92B77E16DEBF
:050A2200FED2B7D2AFC7
:010A270022AC
:10097A00C2AFC2B77F02DFFED2B77F02DFFEA2B7E5
:0B098A00E433FE7F16DFFED2AFAF06A5
:01099500223F
:0209CC00AD0775
:1009CE00E4FC7401A804088002C333D8FC5DFF1256
:0609DE000A120CBC08EC3B
:0109E40022F0
:10094000E4FDFC12097AEF600D7401A8040880022E
:0C095000C333D8FC42050CBC08E9AF051D
:01095C002278
:090AB400D2A0D2A1C2A0C2A1226D
:070ABD00C2A0D2A1D2A022C9
:02087200AD07D0
:10087400E4FB74807E00A803088006CEA2E713CEB2
:1008840013D8F8FFEDF582EF558224FF92A0D2A190
:06089400C2A10BBB08DC51
:01089A00223B
:10090400E4FFD2A0FED2A130A00D7480A806088016
:0D09140002C313D8FC4207C2A10EBE08E8C2
:0109210022B3
:0A0A9600EF24FF92A0C2A1D2A1221A
:080A3E00120AB47FA012087235
:0B0A4600D2A0D2A1A2A0E433FFC2A105
:010A51002282
:100996008C0F8D10AA07120A3EAF02120872120AB5
:0C09A60046AF10120872120A46020ABD89
:02089B00AC07A8
:10089D00120A3EAF04120872120A46120AB47FA160
:1008AD00120872120A46120904AE077F01120A9647
:0508BD00120ABDAF06A8
:0108C2002213
:03000B00020816D2
:10081600C0E0C0D075D000C007758A66758CFC052F
:100826001DE51D7002051CC39414E51C94004009C7
:10083600751C00751D00120739D007D0D0D0E032E4
:1009E5005389F0438901758A66758CFCC28DD28C5A
:0709F500D2A9D2AFC2B92262
:100A5200EF4E600F7D047CEFDCFEDDFCEF1F70F0DB
:030A62001E80ED06
:010A6500226E
:060A7A00C2A58F80D2A787
:080A80007F027EEFDEFEDFFCC9
:010A8800224B
:0A0AA000C2A6120A7AC2A7020A8059
:10092200CFCDCFCECCCE12033C7C007D0A12033C4D
:04093200ED2430FF81
:0A093600D2A6120A7AC2A7020A80B4
:100A2800AE07BE0104ED148006BE0209ED243F4462
:060A380080FF120AA0225B
:100A66007F38120AA07F0C120AA07F06120AA07F06
:040A760001020AA0CF
:0A0AAA00AC03120A28AF040209365B
:0608C3008B0F8A10891161
:1008C900120A28E4FDAB0FAA10A9118D82758300C5
:0C08D9001202FDFF60061209360D80E9D6
:0108E50022F0
:0C07E3007F0AEA24FFFDE434FFFC7E00E6
:0807EF008E168F178C188D196E
:1007F7007F017E00E4FBEBC39519E5186480F8746C
:0E0807008098500AAC16AD1712032A0B80E839
:0108150022C0
:04095D008A118B125E
:10096100120A28AA13EAD39400400D1207E3AC112E
:08097100AD121209221A80EDFB
:01097900225B
:1006FF00120A28C3EA64809480400B7F2B120936BC
:10070F008A148B15800E7F2D120936C3E49BF515C5
:10071F00E49AF514AA13EAD39400400D1207E3AC40
:09072F0014AD151209221A80ED27
:01073800229E
:040772008A218B222B
:10077600120A28AA23EAD3940040297F101207E51B
:10078600AC21AD22CFCDCFCECCCE12033CEF540F51
:10079600FEC3940AEE5004243080022437FF120967
:0407A600361A80D1AE
:0107AA00222C
:0407AB008A268B27E8
:1007AF00120A28AA28EAD394004028EA24FFFDE47D
:1007BF0034FFFC7F027E001207EFAC26AD27CFCDB2
:1007CF00CFCECCCE12033CEF54012430FF120936AA
:0307DF001A80D2AB
:0107E20022F4
:10000E00EC4D6011E8497017ED33EC3304600DE4EC
:10001E00FCFFFEFD22E933E8330470F80202E81219
:10002E0002B358046009E4CC24815006285009021A
:10003E0002F22840030202EFC0E0EB4A7044B9809E
:10004E0006D0E0FB0202DEEF4E701CBD8008EBFF17
:10005E00EAFEE9FD80EBE98DF0A4FEE5F00200F783
:10006E00E9CDF9EAFEEBFFEF89F0A4FCE5F0CE89CD
:10007E00F0A42EFFE435F0CD89F0A42DFEE435F08A
:10008E008067EF4E7005BD80D780C3EF8BF0A4ACB8
:10009E00F0EE8BF0A42CFCE435F0F8EF8AF0A42CF3
:1000AE00E5F038FCE433CB8DF0A42CFCE5F03BF806
:1000BE00EE8AF0A42CFCE5F038F8E433CF89F0A4F6
:1000CE002CFCE5F038CF3400CE89F0A42FFFE5F0FC
:1000DE003EFEE433C98DF0A42EFEE5F039CD8AF054
:1000EE00A42FFFE5F03EFEE43DFD33D0E0FB5007CC
:1000FE000BBB000F0202F2EC2CFCEF33FFEE33FED3
:06010E00ED33FD0202CA00
:100114000202F2EC5D046005E8590470030202E88F
:100124001202B3580460F6EC4860F2EC7004FDFE71
:10013400FF22C860DB2481C85009C39860025006BE
:100144000202EF9850CAF582E9294B4A7005AB8246
:100154000202DE75F0007C1A7880C3EF9BEE9AED04
:1001640099400DC3EF9BFFEE9AFEED99FDE842F036
:10017400DC23ACF0D0E0FFD0E0FED0E0FDAB822089
:10018400E7101BEB60BAEC2CFCEF33FFEE33FEED13
:1001940033FD0202CAE803F830E705C0F075F00049
:1001A400EF2FFFEE33FEED33FD40B830E7C280AAF7
:1001B40074F8CC6480CCC86480C8F58204604FC3F2
:1001C400EB9FF5F0EA9E42F0E99D42F0E89C45F091
:1001D400603C501DE5825FFFE582D313CB5BCBF41B
:1001E4002B5582FB50280ABA002409B90020088044
:1001F4001DE5825BFBE582D313CF5FCFF4C3132FDE
:100204005582FF50090EBE00050DBD00010CC3EB65
:100214009FF5F0EA9E42F0E99D42F0E89C45F060CB
:0902240007CC4820E701B3EC22ED
:10022D00ED33EC33600A047003BD8004ECB2E7FCDF
:01023D00229E
:10023E0075F020800E75F010800575F0087D007E3B
:10024E00007F003392D530D50312045FEC3340109B
:10025E00EF33FFEE33FEED33FDEC33FCD5F0ED2244
:0E026E00E5F0247EA2D513CC92E7CDCEFF2280
:10027C00EDD2E7CD33EC3392D524814006E4FFFE7A
:10028C00FDFC22FCE4CFCECDCC24E0501174FF80D9
:10029C00EDC3CC13CCCD13CDCE13CECF13CF047076
:0702AC00F030D5DE02045F13
:1002B300E9D2E7C933E833F892D5EDD2E7CD33EC91
:0702C30033FC5002B2D5220A
:1002CA00EC30E7100FBF000C0EBE00080DBD000495
:1002DA000BEB6014A2D5EB13FCED92E7FD2274FF41
:1002EA00FCFDFEFF22E480F8A2D574FF13FC7D809A
:0302FA00E480EFAE
:0300000002067382
:0C067300787FE4F6D8FD7581280206BAF5
:1002FD00BB010CE58229F582E5833AF583E02250B6
:10030D0006E92582F8E622BBFE06E92582F8E222FF
:0D031D00E58229F582E5833AF583E4932219
:10032A00EF8DF0A4A8F0CF8CF0A428CE8DF0A42EE7
:02033A00FE22A1
:10033C00BC000BBE0029EF8DF084FFADF022E4CCA5
:10034C00F875F008EF2FFFEE33FEEC33FCEE9DEC6E
:10035C00984005FCEE9DFE0FD5F0E9E4CEFD22EDB4
:10036C00F8F5F0EE8420D21CFEADF075F008EF2FFE
:10037C00FFED33FD4007985006D5F0F222C398FDEF
:05038C000FD5F0EA228C
:1003910075F008758200EF2FFFEE33FECD33CDCC23
:1003A10033CCC58233C5829BED9AEC99E5829840A6
:1003B1000CF582EE9BFEED9AFDEC99FC0FD5F0D683
:1003C100E4CEFBE4CDFAE4CCF9A88222B800C1B9AD
:1003D1000059BA002DEC8BF084CFCECDFCE5F0CBEB
:1003E100F97818EF2FFFEE33FEED33FDEC33FCEB24
:1003F10033FB10D703994004EB99FB0FD8E5E4F9DF
:10040100FA227818EF2FFFEE33FEED33FDEC33FCCB
:10041100C933C910D7059BE99A4007EC9BFCE99ABF
:10042100F90FD8E0E4C9FAE4CCFB2275F010EF2F04
:10043100FFEE33FEED33FDCC33CCC833C810D70704
:100441009BEC9AE899400AED9BFDEC9AFCE899F83F
:0E0451000FD5F0DAE4CDFBE4CCFAE4C8F922D2
:0E045F00C3E49FFFE49EFEE49DFDE49CFC22AE
:10067F0002046DE493A3F8E493A34003F68001F220
:10068F0008DFF48029E493A3F85407240CC8C3337C
:10069F00C4540F4420C8834004F456800146F6DF4B
:1006AF00E4800B0102040810204080900003E47ED8
:1006BF00019360BCA3FF543F30E509541FFEE49340
:1006CF00A360010ECF54C025E060A840B8E493A307
:1006DF00FAE493A3F8E493A3C8C582C8CAC583CA32
:1006EF00F0A3C8C582C8CAC583CADFE9DEE780BEEA
:01000A0000F5
:00000001FF
